:0400000066EF7FF038
:10FEAE00890F8A0F8B0F8C0F8D0F800F810F820F92
:10FEBE00830F840F920F930F940F950F960FAE0E24
:10FECE00F66EFE0EF76E000EF86E00EE01F010EEFE
:10FEDE001EF00900F5CFEEFFE550E150FAE1000EFD
:10FEEE00F86E00017BEF7FF0000E1F6E020E97EC96
:10FEFE007FF0550E1F6E020EDDEC7FF0020EBAEC97
:10FF0E007FF0030E256E8A0E246E560EE82EFED757
:10FF1E00242EFCD7252EFAD785EF7FF000EF00F0C8
:10FF2E00236E010E226E040E2364A0EF7FF0A2EF6B
:10FF3E007FF0A6EF7FF0000E226EB8EF7FF0235019
:10FF4E00020D150EF324D96E000EF420DA6EDECFFC
:10FF5E0020F0DDCF21F020C0D9FF21C0DAFF1FC075
:10FF6E00DFFF22501200226E010E216E040E22645B
:10FF7E00C3EF7FF0C5EF7FF0C9EF7FF0000E216E6B
:10FF8E00DBEF7FF02250020D010EF324D96E000E2E
:10FF9E00F420DA6EDECF1FF0DDCF20F01FC0D9FFC8
:10FFAE0020C0DAFFFF0EDF1A21501200236E010E61
:10FFBE00226E040E2364E6EF7FF0E8EF7FF0ECEFA5
:10FFCE007FF0000E226EFEEF7FF02350020D010E29
:10FFDE00F324D96E000EF420DA6EDECF20F0DDCFE2
:10FFEE0021F020C0D9FF21C0DAFF1FC0DFFF225051
:02FFFE001200EF
:020000040020DA
:08000000FFFFFFFFFFFFFFFF00
:020000040030CA
:0E000000FF02091EFF8181FF0FC00FE00F40BD
:00000001FF
