:04000000ECEF0AF027
:10100000003738392F3435362A3132332D23303DED
:101010002B00010E2B6E23502410D8A412EF08F0E1
:1010200014EF08F018EF08F0000E2B6EBAEF08F07E
:1010300023C0D9FF24C0DAFFDF30E832E832070BE3
:10104000256E080E256027EF08F029EF08F014EF51
:1010500008F023C0D9FF24C0DAFFDF50070B256E4C
:10106000030E256436EF08F038EF08F099EF08F02A
:1010700014EF08F023C0D9FF24C0DAFFDF30E832D4
:10108000E832070B256E010E266E252A4AEF08F07E
:10109000D8902636252E48EF08F02650FF0A276EF6
:1010A00023C0D9FF24C0DAFFDF50070B286E285079
:1010B000020D150EF324D96E000EF420DA6EDECF89
:1010C00029F0DDCF2AF029C0D9FF2AC0DAFF275046
:1010D000DF16BAEF08F023C0D9FF24C0DAFFDF30F3
:1010E000E832E832070B256E010E266E252A7BEFCB
:1010F00008F0D8902636252E79EF08F023C0D9FFC6
:1011000024C0DAFFDF50070B276E2750020D150EA3
:10111000F324D96E000EF420DA6EDECF28F0DDCF96
:1011200029F028C0D9FF29C0DAFF2650DF12BAEF14
:1011300008F023C0D9FF24C0DAFFDFBCA2EF08F01B
:10114000A5EF08F0010EA6EF08F0000E256E266A46
:101150002650000AD8B4AFEF08F014EF08F025507D
:10116000000AD8B43AEF08F0010AD8B46BEF08F0DF
:1011700014EF08F02B501200010E2C6E2350241097
:10118000D8A4C5EF08F0C7EF08F0CBEF08F0000EC9
:101190002C6E61EF09F023C0D9FF24C0DAFFDF30E5
:1011A000E832E832070B266E080E2660DAEF08F008
:1011B000DCEF08F0C7EF08F023C0D9FF24C0DAFF46
:1011C000DF50070B266E030E2664E9EF08F0EBEF05
:1011D00008F04CEF09F0C7EF08F023C0D9FF24C096
:1011E000DAFFDF30E832E832070B266E010E276E99
:1011F000262AFDEF08F0D8902736262EFBEF08F0C0
:101200002750FF0A286E23C0D9FF24C0DAFFDF5021
:10121000070B296E2950020D010EF324D96E000E22
:10122000F420DA6EDECF2AF0DDCF2BF02AC0D9FF12
:101230002BC0DAFF2850DF1661EF09F023C0D9FF79
:1012400024C0DAFFDF30E832E832070B266E010EE9
:10125000276E262A2EEF09F0D8902736262E2CEF5F
:1012600009F023C0D9FF24C0DAFFDF50070B286E36
:101270002850020D010EF324D96E000EF420DA6E10
:10128000DECF29F0DDCF2AF029C0D9FF2AC0DAFF4E
:101290002750DF1261EF09F02550266E276A27508C
:1012A000000AD8B456EF09F0C7EF08F02650000A3C
:1012B000D8B4EDEF08F0010AD8B41EEF09F0C7EF7B
:1012C00008F02C5012002D502E10D8A46AEF09F00F
:1012D0006CEF09F070EF09F0000E306EC4EF09F00A
:1012E0002DC0D9FF2EC0DAFFDF30E832E832070B1D
:1012F0002F6E080E2F607FEF09F081EF09F06CEF81
:1013000009F02DC0D9FF2EC0DAFFDF50070B2F6E7A
:10131000030E2F648EEF09F090EF09F092EF09F0C1
:101320006CEF09F039C031F02DC0D9FF2EC0DAFFC3
:10133000DF50070B2F6E31502F18F80B2F18316E1E
:101340002DC0D9FF2EC0DAFFDF30E832E832070BBC
:101350002F6E2F462F462F4631502F18C70B2F18B0
:10136000316E319C2DC0D9FF2EC0DAFFDFAC02D028
:10137000318E01D0319E310E236E000E246E010E8F
:10138000256EBCEC08F0306E305012002D502E103F
:10139000D8A4CDEF09F0CFEF09F0D3EF09F0000E9C
:1013A000306E27EF0AF02DC0D9FF2EC0DAFFDF30F4
:1013B000E832E832070B2F6E080E2F60E2EF09F0DB
:1013C000E4EF09F0CFEF09F02DC0D9FF2EC0DAFF0E
:1013D000DF50070B2F6E030E2F64F1EF09F0F3EFD0
:1013E00009F0F5EF09F0CFEF09F038C031F02DC06A
:1013F000D9FF2EC0DAFFDF50070B2F6E31502F18A8
:10140000F80B2F18316E2DC0D9FF2EC0DAFFDF3058
:10141000E832E832070B2F6E2F462F462F46315009
:101420002F18C70B2F18316E319C2DC0D9FF2EC03D
:10143000DAFFDFAC02D0318E01D0319E310E236E47
:10144000000E246E000E256EBCEC08F0306E30509D
:101450001200220E2C6E000E2D6E8BEC0AF0210E67
:101460002C6E000E2D6E8BEC0AF0200E2C6E000EF2
:101470002D6E8BEC0AF01F0E2C6E000E2D6E8BEC79
:101480000AF0220E2D6E000E2E6E63EC09F0210E76
:101490002D6E000E2E6EC6EC09F0200E2D6E000E85
:1014A0002E6E63EC09F01F0E2D6E000E2E6EC6EC34
:1014B00009F0030E336E8A0E326E560EE82EFED7FA
:1014C000322EFCD7332EFAD7220E2D6E000E2E6E42
:1014D000C6EC09F0210E2D6E000E2E6E63EC09F0A5
:1014E000200E2D6E000E2E6EC6EC09F01F0E2D6E16
:1014F000000E2E6E63EC09F0030E336E8A0E326E10
:10150000560EE82EFED7322EFCD7332EFAD741EFF7
:101510000AF000EF00F02C502D10D8A492EF0AF042
:1015200094EF0AF098EF0AF0000E2F6EEAEF0AF03F
:101530002CC0D9FF2DC0DAFFDF30E832E832070BCC
:101540002E6E080E2E60A7EF0AF0A9EF0AF094EFB6
:101550000AF02CC0D9FF2DC0DAFFDF50070B2E6E2A
:10156000030E2E64B6EF0AF0B8EF0AF0BAEF0AF0F5
:1015700094EF0AF03AC030F02CC0D9FF2DC0DAFF4A
:10158000DF50070B2E6E30502E18F80B2E18306ED1
:101590002CC0D9FF2DC0DAFFDF30E832E832070B6C
:1015A0002E6E2E462E462E4630502E18C70B2E1865
:1015B000306E309C2CC0D9FF2DC0DAFFDFAC02D0DA
:1015C000308E01D0309E300E236E000E246E09EC5A
:1015D00008F02F6E2F5012000E0EF66E160EF76EDC
:1015E000000EF86E00EE01F010EE22F00900F5CFCB
:1015F000EEFFE550E150FAE100EE34F0090EEE6A3C
:10160000E806FDE1000EF86E000129EF0AF0890FEF
:101610008A0F8B0F8C0F8D0F800F810F820F830F1E
:10162000840F920F930F940F950F960F1A120A02C0
:020000040020DA
:08000000FFFFFFFFFFFFFFFF00
:020000040030CA
:0E000000FF02091EFF8181FF0FC00FE00F40BD
:00000001FF
