:040000001FEF00F0FE
:06000800618217ED0FF00C
:100018006180E8CF2FF0E0CF30F0F0A816EF00F0C5
:1000280018EF00F019EF00F0F05030C0E0FF2FC0DB
:0A003800E8FF61901000E5EF0EF004
:10100000003738392F3435362A3132332D23303DED
:101010002B41484D45440000010E396E31503210CD
:10102000D8A415EF08F017EF08F01BEF08F0000E3A
:10103000396EBDEF08F031C0D9FF32C0DAFFDF30C2
:10104000E832E832070B336E080E33602AEF08F0FF
:101050002CEF08F017EF08F031C0D9FF32C0DAFFEB
:10106000DF50070B336E030E336439EF08F03BEFAC
:1010700008F09CEF08F017EF08F031C0D9FF32C03C
:10108000DAFFDF30E832E832070B336E010E346EE0
:10109000332A4DEF08F0D8903436332E4BEF08F05A
:1010A0003450FF0A356E31C0D9FF32C0DAFFDF504D
:1010B000070B366E3650020D150EF324D96E000E56
:1010C000F420DA6EDECF37F0DDCF38F037C0D9FF4D
:1010D00038C0DAFF3550DF16BDEF08F031C0D9FF58
:1010E00032C0DAFFDF30E832E832070B336E010E30
:1010F000346E332A7EEF08F0D8903436332E7CEFEE
:1011000008F031C0D9FF32C0DAFFDF50070B356E6F
:101110003550020D150EF324D96E000EF420DA6E50
:10112000DECF36F0DDCF37F036C0D9FF37C0DAFF7B
:101130003450DF12BDEF08F031C0D9FF32C0DAFF02
:10114000DFBCA5EF08F0A8EF08F0010EA9EF08F04A
:10115000000E336E346A3450000AD8B4B2EF08F08F
:1011600017EF08F03350000AD8B43DEF08F0010A39
:10117000D8B46EEF08F017EF08F039501200010EE6
:101180003A6E31503210D8A4C8EF08F0CAEF08F018
:10119000CEEF08F0000E3A6E64EF09F031C0D9FFCF
:1011A00032C0DAFFDF30E832E832070B346E080E67
:1011B0003460DDEF08F0DFEF08F0CAEF08F031C06F
:1011C000D9FF32C0DAFFDF50070B346E030E3464F0
:1011D000ECEF08F0EEEF08F04FEF09F0CAEF08F07F
:1011E00031C0D9FF32C0DAFFDF30E832E832070B16
:1011F000346E010E356E342A00EF09F0D890353682
:10120000342EFEEF08F03550FF0A366E31C0D9FF9C
:1012100032C0DAFFDF50070B376E3750020D010E78
:10122000F324D96E000EF420DA6EDECF38F0DDCF75
:1012300039F038C0D9FF39C0DAFF3650DF1664EF15
:1012400009F031C0D9FF32C0DAFFDF30E832E832CE
:10125000070B346E010E356E342A31EF09F0D89049
:101260003536342E2FEF09F031C0D9FF32C0DAFF06
:10127000DF50070B366E3650020D010EF324D96E87
:10128000000EF420DA6EDECF37F0DDCF38F037C055
:10129000D9FF38C0DAFF3550DF1264EF09F0335060
:1012A000346E356A3550000AD8B459EF09F0CAEFE8
:1012B00008F03450000AD8B4F0EF08F0010AD8B4AE
:1012C00021EF09F0CAEF08F03A501200000E436E09
:1012D0003B503C10D8A46FEF09F071EF09F075EFA7
:1012E00009F0000E426E0AEF0AF03BC031F03CC03C
:1012F00032F0010E336EBFEC08F0000ED8B4010ED0
:10130000436E030E436487EF09F089EF09F08BEF1A
:1013100009F0ADEF09F043503B243E6E000E3C2037
:101320003F6E020E3E24316E000E3F20326E43C0EF
:1013300040F0040E40263DC041F0402AA2EF09F0E3
:10134000D8904132402EA0EF09F04150010B336E8E
:10135000BFEC08F0432A81EF09F0010E3B24316E07
:10136000000E3C20326E010E336EBFEC08F000D050
:1013700000D000F0010E3B24316E000E3C20326E96
:10138000000E336EBFEC08F0000ED8B4010E436EB1
:10139000030E4364CEEF09F0D0EF09F0D2EF09F06D
:1013A000F2EF09F043503B243E6E000E3C203F6EAE
:1013B000020E3E24316E000E3F20326E43C040F0DC
:1013C0003DC041F0402AE7EF09F0D8904132402E6D
:1013D000E5EF09F04150010B336EBFEC08F0432AF2
:1013E000C8EF09F0010E3B24316E000E3C20326E36
:1013F000010E336EBFEC08F000D000D000F0010EFB
:101400003B24316E000E3C20326E000E336EBFEC7A
:1014100008F0426E42501200000E436E3B503C10EA
:10142000D8A415EF0AF017EF0AF01BEF0AF0000E30
:10143000426EB0EF0AF03BC031F03CC032F0000E1B
:10144000336EBFEC08F0000ED8B4010E436E030EED
:1014500043642DEF0AF02FEF0AF031EF0AF053EF5B
:101460000AF043503B243E6E000E3C203F6E020EBD
:101470003E24316E000E3F20326E43C040F0040E19
:1014800040263DC041F0402A48EF0AF0D890413252
:10149000402E46EF0AF04150010B336EBFEC08F0CE
:1014A000432A27EF0AF0010E3B24316E000E3C2048
:1014B000326E010E336EBFEC08F000D000D000F0A9
:1014C000010E3B24316E000E3C20326E000E336E56
:1014D000BFEC08F0000ED8B4010E436E030E436457
:1014E00074EF0AF076EF0AF078EF0AF098EF0AF05E
:1014F00043503B243E6E000E3C203F6E020E3E24C5
:10150000316E000E3F20326E43C040F03DC041F0CE
:10151000402A8DEF0AF0D8904132402E8BEF0AF02E
:101520004150010B336EBFEC08F0432A6EEF0AF016
:10153000010E3B24316E000E3C20326E010E336EE4
:10154000BFEC08F000D000D000F0010E3B24316E5B
:10155000000E3C20326E000E336EBFEC08F0426E7F
:1015600042501200000E486E44504510D8A4BBEF04
:101570000AF0BDEF0AF0C1EF0AF0000E496E44EF29
:101580000BF044C03BF045C03CF0AEEC0DF0496EB2
:10159000010E44243B6E000E45203C6EAEEC0DF077
:1015A000496E000ED8B4010E486E070E4864DBEF9A
:1015B0000AF0DDEF0AF0DFEF0AF0F0EF0AF0485032
:1015C0004424466E000E4520476E020E46243B6EB4
:1015D000000E47203C6EAEEC0DF0482AD5EF0AF025
:1015E0001A0E466EF80EE82EFED7462EFCD700D017
:1015F00044C03BF045C03CF0380E3D6EA5EC0CF00D
:10160000070E466E7D0EE82EFED7462EFCD700F064
:1016100044C03BF045C03CF0380E3D6EA5EC0CF0EC
:10162000320EE82EFED744C03BF045C03CF0380EE9
:101630003D6EA5EC0CF044C03BF045C03CF0010E03
:101640003D6EA5EC0CF044C03BF045C03CF0020EF2
:101650003D6EA5EC0CF044C03BF045C03CF0060EDE
:101660003D6EA5EC0CF044C03BF045C03CF00C0EC8
:101670003D6EA5EC0CF044C03BF045C03CF0380E8C
:101680003D6EA5EC0CF0496E49501200000E486EFC
:1016900044504510D8A44FEF0BF051EF0BF055EF2D
:1016A0000BF0000E496ED8EF0BF044C03BF045C084
:1016B0003CF0AEEC0DF0496E010E44243B6E000E82
:1016C00045203C6EAEEC0DF0496E000ED8B4010E14
:1016D000486E030E48646FEF0BF071EF0BF073EF81
:1016E0000BF084EF0BF048504424466E000E45206A
:1016F000476E020E46243B6E000E47203C6EAEEC59
:101700000DF0482A69EF0BF01A0E466EF80EE82E1F
:10171000FED7462EFCD700D044C03BF045C03CF07D
:10172000280E3D6E0CEC0AF0070E466E7D0EE82E7C
:10173000FED7462EFCD700F044C03BF045C03CF03D
:10174000280E3D6E0CEC0AF0320EE82EFED744C097
:101750003BF045C03CF0280E3D6E0CEC0AF044C056
:101760003BF045C03CF0010E3D6E0CEC0AF044C06D
:101770003BF045C03CF0020E3D6E0CEC0AF044C05C
:101780003BF045C03CF0060E3D6E0CEC0AF044C048
:101790003BF045C03CF00C0E3D6E0CEC0AF044C032
:1017A0003BF045C03CF0280E3D6E0CEC0AF0496E53
:1017B00049501200290E446E000E456E46EC0BF0A7
:1017C0001F0E446E000E456EB2EC0AF01F0E3B6E0B
:1017D000000E3C6E410E3D6E46EC0CF01F0E4B6E43
:1017E000000E4C6E4C0E4D6E050E4E6E010E4F6E81
:1017F0009FEC0EF01F0E4B6E000E4C6E590E4D6E90
:101800000A0E4E6E020E4F6E9FEC0EF01F0E4B6EC8
:10181000000E4C6E110E4D6E100E4E6E000E4F6E81
:10182000030E506E57EC0EF0290E3B6E000E3C6E10
:10183000410E3D6E66EC09F0290E4B6E000E4C6EAB
:101840004C0E4D6E050E4E6E010E4F6EC2EC0EF03C
:10185000290E4B6E000E4C6E590E4D6E0A0E4E6EDA
:10186000020E4F6EC2EC0EF0290E4B6E000E4C6E47
:10187000110E4D6E100E4E6E000E4F6E030E506E1A
:101880007BEC0EF042EF0CF01FEF00F0000E436E09
:101890003B503C10D8A44FEF0CF051EF0CF055EF3B
:1018A0000CF0000E426EA3EF0CF03BC031F03CC0D8
:1018B00032F0010E336EBFEC08F0000ED8B4010E0A
:1018C000436E070E436467EF0CF069EF0CF06BEFAB
:1018D0000CF08BEF0CF043503B243E6E000E3C208E
:1018E0003F6E020E3E24316E000E3F20326E43C02A
:1018F00040F03DC041F0402A80EF0CF0D8904132DA
:10190000402E7EEF0CF04150010B336EBFEC08F01F
:10191000432A61EF0CF0010E3B24316E000E3C2097
:10192000326E010E336EBFEC08F000D000D000F034
:10193000010E3B24316E000E3C20326E000E336EE1
:10194000BFEC08F0426E42501200000E436E3B5056
:101950003C10D8A4AEEF0CF0B0EF0CF0B4EF0CF0EC
:10196000000E426E02EF0DF03BC031F03CC032F091
:10197000000E336EBFEC08F0000ED8B4010E436EBB
:10198000070E4364C6EF0CF0C8EF0CF0CAEF0CF082
:10199000EAEF0CF043503B243E6E000E3C203F6EBD
:1019A000020E3E24316E000E3F20326E43C040F0E6
:1019B0003DC041F0402ADFEF0CF0D8904132402E7C
:1019C000DDEF0CF04150010B336EBFEC08F0432A01
:1019D000C0EF0CF0010E3B24316E000E3C20326E45
:1019E000010E336EBFEC08F000D000D000F0010E05
:1019F0003B24316E000E3C20326E000E336EBFEC85
:101A000008F0426E425012003AEF0DF044C03BF035
:101A100045C03CF04750800F3D6EA5EC0CF04A6E7F
:101A200057EF0DF044C03BF045C03CF04750C00FAD
:101A30003D6EA5EC0CF04A6E57EF0DF044C03BF044
:101A400045C03CF04750940F3D6EA5EC0CF04A6E3B
:101A500057EF0DF044C03BF045C03CF04750D40F69
:101A60003D6EA5EC0CF04A6E57EF0DF0000E4A6E7D
:101A700057EF0DF04650486E496A4950000AD8B4F5
:101A800044EF0DF036EF0DF04850000AD8B406EFE1
:101A90000DF0010AD8B412EF0DF0030AD8B41EEF0E
:101AA0000DF0010AD8B42AEF0DF036EF0DF04A50D0
:101AB00012008FEF0DF044C03BF045C03CF04750A2
:101AC000800F3D6EA5EC0CF04A6EACEF0DF044C0FB
:101AD0003BF045C03CF04750C00F3D6EA5EC0CF00C
:101AE0004A6EACEF0DF044C03BF045C03CF04750AF
:101AF000940F3D6EA5EC0CF04A6EACEF0DF044C0B7
:101B00003BF045C03CF04750D40F3D6EA5EC0CF0C7
:101B10004A6EACEF0DF0000E4A6EACEF0DF0465081
:101B2000486E496A4950000AD8B499EF0DF08BEF1E
:101B30000DF04850000AD8B45BEF0DF0010AD8B49C
:101B400067EF0DF0030AD8B473EF0DF0010AD8B4B3
:101B50007FEF0DF08BEF0DF04A5012003B503C1020
:101B6000D8A4B5EF0DF0B7EF0DF0BBEF0DF0000E00
:101B70003E6EF3EF0DF03BC0D9FF3CC0DAFFDF3023
:101B8000E832E832070B3D6E080E3D60CAEF0DF0FB
:101B9000CCEF0DF0B7EF0DF03BC0D9FF3CC0DAFF42
:101BA000DF50070B3D6E030E3D64D9EF0DF0DBEF08
:101BB0000DF0DDEF0DF0B7EF0DF03BC031F03CC0A4
:101BC00032F00CEC08F03E6E3BC031F03CC032F01D
:101BD0003BC0D9FF3CC0DAFF000EDFBE010E336E02
:101BE000BFEC08F03E6E3E501200010E486E4450AD
:101BF0004510D8A4FEEF0DF000EF0EF015EF0EF03B
:101C0000000E486E24EF0EF044C03BF045C03CF09F
:101C100046C0F6FF47C0F7FFF86A0800F5CF3DF071
:101C200046EC0CF0486E464A472A46C0F6FF47C0CD
:101C3000F7FFF86A0800F5500009D8A422EF0EF06B
:101C400024EF0EF004EF0EF048501200010E486E23
:101C500044504510D8A42FEF0EF031EF0EF046EFB0
:101C60000EF0000E486E55EF0EF044C03BF045C03C
:101C70003CF046C0F6FF47C0F7FFF86A0800F5CF12
:101C80003DF066EC09F0486E464A472A46C0F6FF2A
:101C900047C0F7FFF86A0800F5500009D8A453EFD1
:101CA0000EF055EF0EF035EF0EF0485012004B508D
:101CB0004C10D8A45EEF0EF060EF0EF064EF0EF063
:101CC000000E516E79EF0EF04BC044F04CC045F061
:101CD00050C046F04FC047F004EC0DF04BC044F04C
:101CE0004CC045F04DC046F04EC047F0F5EC0DF04D
:101CF000516E515012004B504C10D8A482EF0EF090
:101D000084EF0EF088EF0EF0000E516E9DEF0EF096
:101D10004BC044F04CC045F050C046F04FC047F0B7
:101D200059EC0DF04BC044F04CC045F04DC046F0AE
:101D30004EC047F026EC0EF0516E515012004B5041
:101D40004C10D8A4A6EF0EF0A8EF0EF0ACEF0EF0FA
:101D5000000E506EC0EF0EF04BC044F04CC045F08A
:101D60004FC046F04EC047F004EC0DF0506E4BC033
:101D70003BF04CC03CF04DC03DF046EC0CF0506EDA
:101D8000505012004B504C10D8A4C9EF0EF0CBEFBE
:101D90000EF0CFEF0EF0000E506EE3EF0EF04BC0E2
:101DA00044F04CC045F04FC046F04EC047F059ECEF
:101DB0000DF0506E4BC03BF04CC03CF04DC03DF0C0
:101DC00066EC09F0506E50501200000EF66E1E0EBA
:101DD000F76E000EF86E00EE01F010EE2EF0090026
:101DE000F5CFEEFFE550E150FAE100EE52F00F0EB4
:101DF000EE6AE806FDE1619061920001DAEF0BF016
:101E0000890F8A0F8B0F8C0F8D0F800F810F820F20
:101E1000830F840F920F930F940F950F960F323A02
:101E2000030B131B232B333B020A121A222A060030
:101E3000F2A81DEF0FF01FEF0FF020EF0FF0F250A0
:101E4000F0A625EF0FF027EF0FF028EF0FF0F0507E
:041E5000619211008A
:020000040020DA
:08000000FFFFFFFFFFFFFFFF00
:020000040030CA
:0E000000FF02091EFF8181FF0FC00FE00F40BD
:00000001FF
