:04000000E1EF0EF02E
:10100000003738392F3435362A3132332D23303DED
:101010002B41484D45440000010E376E2F503010D3
:10102000D8A415EF08F017EF08F01BEF08F0000E3A
:10103000376EBDEF08F02FC0D9FF30C0DAFFDF30C8
:10104000E832E832070B316E080E31602AEF08F003
:101050002CEF08F017EF08F02FC0D9FF30C0DAFFEF
:10106000DF50070B316E030E316439EF08F03BEFB0
:1010700008F09CEF08F017EF08F02FC0D9FF30C040
:10108000DAFFDF30E832E832070B316E010E326EE4
:10109000312A4DEF08F0D8903236312E4BEF08F060
:1010A0003250FF0A336E2FC0D9FF30C0DAFFDF5055
:1010B000070B346E3450020D150EF324D96E000E5A
:1010C000F420DA6EDECF35F0DDCF36F035C0D9FF53
:1010D00036C0DAFF3350DF16BDEF08F02FC0D9FF5E
:1010E00030C0DAFFDF30E832E832070B316E010E34
:1010F000326E312A7EEF08F0D8903236312E7CEFF6
:1011000008F02FC0D9FF30C0DAFFDF50070B336E75
:101110003350020D150EF324D96E000EF420DA6E52
:10112000DECF34F0DDCF35F034C0D9FF35C0DAFF83
:101130003250DF12BDEF08F02FC0D9FF30C0DAFF08
:10114000DFBCA5EF08F0A8EF08F0010EA9EF08F04A
:10115000000E316E326A3250000AD8B4B2EF08F095
:1011600017EF08F03150000AD8B43DEF08F0010A3B
:10117000D8B46EEF08F017EF08F037501200010EE8
:10118000386E2F503010D8A4C8EF08F0CAEF08F01E
:10119000CEEF08F0000E386E64EF09F02FC0D9FFD3
:1011A00030C0DAFFDF30E832E832070B326E080E6B
:1011B0003260DDEF08F0DFEF08F0CAEF08F02FC073
:1011C000D9FF30C0DAFFDF50070B326E030E3264F6
:1011D000ECEF08F0EEEF08F04FEF09F0CAEF08F07F
:1011E0002FC0D9FF30C0DAFFDF30E832E832070B1A
:1011F000326E010E336E322A00EF09F0D89033368A
:10120000322EFEEF08F03350FF0A346E2FC0D9FFA4
:1012100030C0DAFFDF50070B356E3550020D010E7E
:10122000F324D96E000EF420DA6EDECF36F0DDCF77
:1012300037F036C0D9FF37C0DAFF3450DF1664EF1D
:1012400009F02FC0D9FF30C0DAFFDF30E832E832D2
:10125000070B326E010E336E322A31EF09F0D8904F
:101260003336322E2FEF09F02FC0D9FF30C0DAFF0E
:10127000DF50070B346E3450020D010EF324D96E8B
:10128000000EF420DA6EDECF35F0DDCF36F035C05B
:10129000D9FF36C0DAFF3350DF1264EF09F0315066
:1012A000326E336A3350000AD8B459EF09F0CAEFEE
:1012B00008F03250000AD8B4F0EF08F0010AD8B4B0
:1012C00021EF09F0CAEF08F038501200000E416E0D
:1012D00039503A10D8A46FEF09F071EF09F075EFAB
:1012E00009F0000E406E0AEF0AF039C02FF03AC044
:1012F00030F0010E316EBFEC08F0000ED8B4010ED4
:10130000416E030E416487EF09F089EF09F08BEF1E
:1013100009F0ADEF09F0415039243C6E000E3A203F
:101320003D6E020E3C242F6E000E3D20306E41C0FB
:101330003EF0040E3E263BC03FF03E2AA2EF09F0ED
:10134000D8903F323E2EA0EF09F03F50010B316E96
:10135000BFEC08F0412A81EF09F0010E39242F6E0D
:10136000000E3A20306E010E316EBFEC08F000D056
:1013700000D000F0010E39242F6E000E3A20306E9E
:10138000000E316EBFEC08F0000ED8B4010E416EB5
:10139000030E4164CEEF09F0D0EF09F0D2EF09F06F
:1013A000F2EF09F0415039243C6E000E3A203D6EB8
:1013B000020E3C242F6E000E3D20306E41C03EF0E8
:1013C0003BC03FF03E2AE7EF09F0D8903F323E2E77
:1013D000E5EF09F03F50010B316EBFEC08F0412AF8
:1013E000C8EF09F0010E39242F6E000E3A20306E3E
:1013F000010E316EBFEC08F000D000D000F0010EFD
:1014000039242F6E000E3A20306E000E316EBFEC84
:1014100008F0406E40501200000E416E39503A10F4
:10142000D8A415EF0AF017EF0AF01BEF0AF0000E30
:10143000406EB0EF0AF039C02FF03AC030F0000E25
:10144000316EBFEC08F0000ED8B4010E416E030EF1
:1014500041642DEF0AF02FEF0AF031EF0AF053EF5D
:101460000AF0415039243C6E000E3A203D6E020EC7
:101470003C242F6E000E3D20306E41C03EF0040E25
:101480003E263BC03FF03E2A48EF0AF0D8903F325C
:101490003E2E46EF0AF03F50010B316EBFEC08F0D4
:1014A000412A27EF0AF0010E39242F6E000E3A2050
:1014B000306E010E316EBFEC08F000D000D000F0AD
:1014C000010E39242F6E000E3A20306E000E316E60
:1014D000BFEC08F0000ED8B4010E416E030E41645B
:1014E00074EF0AF076EF0AF078EF0AF098EF0AF05E
:1014F000415039243C6E000E3A203D6E020E3C24D1
:101500002F6E000E3D20306E41C03EF03BC03FF0DC
:101510003E2A8DEF0AF0D8903F323E2E8BEF0AF034
:101520003F50010B316EBFEC08F0412A6EEF0AF01C
:10153000010E39242F6E000E3A20306E010E316EEE
:10154000BFEC08F000D000D000F0010E39242F6E5F
:10155000000E3A20306E000E316EBFEC08F0406E87
:1015600040501200000E466E42504310D8A4BBEF0C
:101570000AF0BDEF0AF0C1EF0AF0000E476E44EF2B
:101580000BF042C039F043C03AF0AEEC0DF0476EBC
:10159000010E4224396E000E43203A6EAEEC0DF07F
:1015A000476E000ED8B4010E466E070E4664DBEFA0
:1015B0000AF0DDEF0AF0DFEF0AF0F0EF0AF0465034
:1015C0004224446E000E4320456E020E4424396EC0
:1015D000000E45203A6EAEEC0DF0462AD5EF0AF02B
:1015E0001A0E446EF80EE82EFED7442EFCD700D01B
:1015F00042C039F043C03AF0380E3B6EA5EC0CF017
:10160000070E446E7D0EE82EFED7442EFCD700F068
:1016100042C039F043C03AF0380E3B6EA5EC0CF0F6
:10162000320EE82EFED742C039F043C03AF0380EF1
:101630003B6EA5EC0CF042C039F043C03AF0010E0D
:101640003B6EA5EC0CF042C039F043C03AF0020EFC
:101650003B6EA5EC0CF042C039F043C03AF0060EE8
:101660003B6EA5EC0CF042C039F043C03AF00C0ED2
:101670003B6EA5EC0CF042C039F043C03AF0380E96
:101680003B6EA5EC0CF0476E47501200000E466E04
:1016900042504310D8A44FEF0BF051EF0BF055EF31
:1016A0000BF0000E476ED8EF0BF042C039F043C08C
:1016B0003AF0AEEC0DF0476E010E4224396E000E8A
:1016C00043203A6EAEEC0DF0476E000ED8B4010E1A
:1016D000466E030E46646FEF0BF071EF0BF073EF85
:1016E0000BF084EF0BF046504224446E000E432072
:1016F000456E020E4424396E000E45203A6EAEEC63
:101700000DF0462A69EF0BF01A0E446EF80EE82E23
:10171000FED7442EFCD700D042C039F043C03AF087
:10172000280E3B6E0CEC0AF0070E446E7D0EE82E80
:10173000FED7442EFCD700F042C039F043C03AF047
:10174000280E3B6E0CEC0AF0320EE82EFED742C09B
:1017500039F043C03AF0280E3B6E0CEC0AF042C060
:1017600039F043C03AF0010E3B6E0CEC0AF042C077
:1017700039F043C03AF0020E3B6E0CEC0AF042C066
:1017800039F043C03AF0060E3B6E0CEC0AF042C052
:1017900039F043C03AF00C0E3B6E0CEC0AF042C03C
:1017A00039F043C03AF0280E3B6E0CEC0AF0476E5D
:1017B00047501200290E426E000E436E46EC0BF0AD
:1017C0001F0E426E000E436EB2EC0AF01F0E396E11
:1017D000000E3A6E410E3B6E46EC0CF01F0E496E49
:1017E000000E4A6E4C0E4B6E050E4C6E010E4D6E89
:1017F0009BEC0EF01F0E496E000E4A6E590E4B6E9A
:101800000A0E4C6E020E4D6E9BEC0EF01F0E496ED2
:10181000000E4A6E110E4B6E100E4C6E000E4D6E89
:10182000030E4E6E53EC0EF0290E396E000E3A6E1A
:10183000410E3B6E66EC09F0290E496E000E4A6EB1
:101840004C0E4B6E050E4C6E010E4D6EBEEC0EF046
:10185000290E496E000E4A6E590E4B6E0A0E4C6EE2
:10186000020E4D6EBEEC0EF0290E496E000E4A6E51
:10187000110E4B6E100E4C6E000E4D6E030E4E6E22
:1018800077EC0EF042EF0CF000EF00F0000E416E2E
:1018900039503A10D8A44FEF0CF051EF0CF055EF3F
:1018A0000CF0000E406EA3EF0CF039C02FF03AC0E0
:1018B00030F0010E316EBFEC08F0000ED8B4010E0E
:1018C000416E070E416467EF0CF069EF0CF06BEFAF
:1018D0000CF08BEF0CF0415039243C6E000E3A2096
:1018E0003D6E020E3C242F6E000E3D20306E41C036
:1018F0003EF03BC03FF03E2A80EF0CF0D8903F32E4
:101900003E2E7EEF0CF03F50010B316EBFEC08F025
:10191000412A61EF0CF0010E39242F6E000E3A209F
:10192000306E010E316EBFEC08F000D000D000F038
:10193000010E39242F6E000E3A20306E000E316EEB
:10194000BFEC08F0406E40501200000E416E39505E
:101950003A10D8A4AEEF0CF0B0EF0CF0B4EF0CF0EE
:10196000000E406E02EF0DF039C02FF03AC030F09B
:10197000000E316EBFEC08F0000ED8B4010E416EBF
:10198000070E4164C6EF0CF0C8EF0CF0CAEF0CF084
:10199000EAEF0CF0415039243C6E000E3A203D6EC7
:1019A000020E3C242F6E000E3D20306E41C03EF0F2
:1019B0003BC03FF03E2ADFEF0CF0D8903F323E2E86
:1019C000DDEF0CF03F50010B316EBFEC08F0412A07
:1019D000C0EF0CF0010E39242F6E000E3A20306E4D
:1019E000010E316EBFEC08F000D000D000F0010E07
:1019F00039242F6E000E3A20306E000E316EBFEC8F
:101A000008F0406E405012003AEF0DF042C039F03D
:101A100043C03AF04550800F3B6EA5EC0CF0486E89
:101A200057EF0DF042C039F043C03AF04550C00FB7
:101A30003B6EA5EC0CF0486E57EF0DF042C039F04C
:101A400043C03AF04550940F3B6EA5EC0CF0486E45
:101A500057EF0DF042C039F043C03AF04550D40F73
:101A60003B6EA5EC0CF0486E57EF0DF0000E486E83
:101A700057EF0DF04450466E476A4750000AD8B4FD
:101A800044EF0DF036EF0DF04650000AD8B406EFE3
:101A90000DF0010AD8B412EF0DF0030AD8B41EEF0E
:101AA0000DF0010AD8B42AEF0DF036EF0DF04850D2
:101AB00012008FEF0DF042C039F043C03AF04550AC
:101AC000800F3B6EA5EC0CF0486EACEF0DF042C001
:101AD00039F043C03AF04550C00F3B6EA5EC0CF016
:101AE000486EACEF0DF042C039F043C03AF04550BB
:101AF000940F3B6EA5EC0CF0486EACEF0DF042C0BD
:101B000039F043C03AF04550D40F3B6EA5EC0CF0D1
:101B1000486EACEF0DF0000E486EACEF0DF0445087
:101B2000466E476A4750000AD8B499EF0DF08BEF24
:101B30000DF04650000AD8B45BEF0DF0010AD8B49E
:101B400067EF0DF0030AD8B473EF0DF0010AD8B4B3
:101B50007FEF0DF08BEF0DF04850120039503A1026
:101B6000D8A4B5EF0DF0B7EF0DF0BBEF0DF0000E00
:101B70003C6EF3EF0DF039C0D9FF3AC0DAFFDF3029
:101B8000E832E832070B3B6E080E3B60CAEF0DF0FF
:101B9000CCEF0DF0B7EF0DF039C0D9FF3AC0DAFF46
:101BA000DF50070B3B6E030E3B64D9EF0DF0DBEF0C
:101BB0000DF0DDEF0DF0B7EF0DF039C02FF03AC0AA
:101BC00030F00CEC08F03C6E39C02FF03AC030F029
:101BD00039C0D9FF3AC0DAFF000EDFBE010E316E08
:101BE000BFEC08F03C6E3C501200010E466E4250B5
:101BF0004310D8A4FEEF0DF000EF0EF014EF0EF03E
:101C0000000E466E22EF0EF042C039F043C03AF0AB
:101C100044C0F6FF45C0F7FF0800F5CF3BF046ECA7
:101C20000CF0466E444A452A44C0F6FF45C0F7FF13
:101C30000800F5500009D8A420EF0EF022EF0EF0B6
:101C400004EF0EF046501200010E466E4250431053
:101C5000D8A42DEF0EF02FEF0EF043EF0EF0000E94
:101C6000466E51EF0EF042C039F043C03AF044C026
:101C7000F6FF45C0F7FF0800F5CF3BF066EC09F032
:101C8000466E444A452A44C0F6FF45C0F7FF0800A7
:101C9000F5500009D8A44FEF0EF051EF0EF033EFDE
:101CA0000EF04650120049504A10D8A45AEF0EF0D8
:101CB0005CEF0EF060EF0EF0000E4F6E75EF0EF061
:101CC00049C042F04AC043F04EC044F04DC045F018
:101CD00004EC0DF049C042F04AC043F04BC044F060
:101CE0004CC045F0F5EC0DF04F6E4F5012004950CE
:101CF0004A10D8A47EEF0EF080EF0EF084EF0EF0C5
:101D0000000E4F6E99EF0EF049C042F04AC043F00A
:101D10004EC044F04DC045F059EC0DF049C042F0C2
:101D20004AC043F04BC044F04CC045F024EC0EF0E8
:101D30004F6E4F50120049504A10D8A4A2EF0EF037
:101D4000A4EF0EF0A8EF0EF0000E4E6EBCEF0EF0FA
:101D500049C042F04AC043F04DC044F04CC045F089
:101D600004EC0DF04E6E49C039F04AC03AF04BC059
:101D70003BF046EC0CF04E6E4E50120049504A10AB
:101D8000D8A4C5EF0EF0C7EF0EF0CBEF0EF0000EAB
:101D90004E6EDFEF0EF049C042F04AC043F04DC036
:101DA00044F04CC045F059EC0DF04E6E49C039F08E
:101DB0004AC03AF04BC03BF066EC09F04E6E4E5014
:101DC0001200F80EF66E1D0EF76E000EF86E00EEA5
:101DD00001F010EE2EF00900F5CFEEFFE550E150D6
:101DE000FAE100EE50F0090EEE6AE806FDE1000EA1
:101DF000F86E0001DAEF0BF0890F8A0F8B0F8C0F52
:101E00008D0F800F810F820F830F840F920F930F1E
:101E1000940F950F960F323A030B131B232B333B72
:061E2000020A121A222A38
:020000040020DA
:08000000FFFFFFFFFFFFFFFF00
:020000040030CA
:0E000000FF02091EFF8181FF0FC00FE00F40BD
:00000001FF
