:0400000001EF7DF09F
:10F9E000890F8A0F8B0F8C0F8D0F800F810F820F65
:10F9F000830F840F920F930F940F950F960F1A1287
:10FA00000A02E00EF66EF90EF76E000EF86E00EECA
:10FA100001F010EE22F00900F5CFEEFFE550E150C5
:10FA2000FAE1376A366A356A346A000EF86E000108
:10FA30007CEF7DF0010E2F6E2C502D10D8A423EFFB
:10FA40007DF025EF7DF029EF7DF0000E2F6E7AEF2F
:10FA50007DF02CC0D9FF2DC0DAFFDF30E832E8326C
:10FA6000070B2E6E080E2E6038EF7DF03AEF7DF01A
:10FA700025EF7DF02CC0D9FF2DC0DAFFDF50070B3A
:10FA80002E6E030E2E6447EF7DF049EF7DF04BEFB5
:10FA90007DF025EF7DF037C030F02CC0D9FF2DC0B0
:10FAA000DAFFDF50070B2E6E30502E18F80B2E1891
:10FAB000306E2CC0D9FF2DC0DAFFDF30E832E832DB
:10FAC000070B2E6E2E462E462E4630502E18C70B94
:10FAD0002E18306E309C2CC0D9FF2DC0DAFFDFAC61
:10FAE00002D0308E01D0309E300E236E000E246E78
:10FAF0004DEC7FF02F501200220E2C6E000E2D6E5A
:10FB00001AEC7DF0210E2C6E000E2D6E1AEC7DF09D
:10FB1000200E2C6E000E2D6E1AEC7DF01F0E2C6E3A
:10FB2000000E2D6E1AEC7DF0220E2D6E000E2E6E44
:10FB300042EC7EF0210E2D6E000E2E6EDEEC7DF07E
:10FB4000200E2D6E000E2E6E42EC7EF01F0E2D6EDE
:10FB5000000E2E6EDEEC7DF0030E336E8A0E326EDA
:10FB6000560EE82EFED7322EFCD7332EFAD7220EB1
:10FB70002D6E000E2E6EDEEC7DF0210E2D6E000E31
:10FB80002E6E42EC7EF0200E2D6E000E2E6EDEEC00
:10FB90007DF01F0E2D6E000E2E6E42EC7EF0030ED9
:10FBA000336E8A0E326E560EE82EFED7322EFCD7FA
:10FBB000332EFAD794EF7DF000EF00F0010E306E97
:10FBC0002D502E10D8A4E7EF7DF0E9EF7DF0EDEF9A
:10FBD0007DF0000E306E40EF7EF02DC0D9FF2EC0BC
:10FBE000DAFFDF30E832E832070B2F6E080E2F60A5
:10FBF000FCEF7DF0FEEF7DF0E9EF7DF02DC0D9FF49
:10FC00002EC0DAFFDF50070B2F6E030E2F640BEFB1
:10FC10007EF00DEF7EF00FEF7EF0E9EF7DF035C066
:10FC200031F02DC0D9FF2EC0DAFFDF50070B2F6E49
:10FC300031502F18F80B2F18316E2DC0D9FF2EC060
:10FC4000DAFFDF30E832E832070B2F6E2F462F46FF
:10FC50002F4631502F18C70B2F18316E319C2DC0F5
:10FC6000D9FF2EC0DAFFDFAC02D0318E01D0319E39
:10FC7000310E236E000E246E000E256EA6EC7EF073
:10FC800030501200010E306E2D502E10D8A44BEFC4
:10FC90007EF04DEF7EF051EF7EF0000E306EA4EF5F
:10FCA0007EF02DC0D9FF2EC0DAFFDF30E832E83217
:10FCB000070B2F6E080E2F6060EF7EF062EF7EF074
:10FCC0004DEF7EF02DC0D9FF2EC0DAFFDF50070BBD
:10FCD0002F6E030E2F646FEF7EF071EF7EF073EFE7
:10FCE0007EF04DEF7EF036C031F02DC0D9FF2EC032
:10FCF000DAFFDF50070B2F6E31502F18F80B2F183B
:10FD0000316E2DC0D9FF2EC0DAFFDF30E832E83285
:10FD1000070B2F6E2F462F462F4631502F18C70B3B
:10FD20002F18316E319C2DC0D9FF2EC0DAFFDFAC09
:10FD300002D0318E01D0319E310E236E000E246E22
:10FD4000010E256EA6EC7EF030501200010E2C6ED6
:10FD500023502410D8A4AFEF7EF0B1EF7EF0B5EFC2
:10FD60007EF0000E2C6E4BEF7FF023C0D9FF24C035
:10FD7000DAFFDF30E832E832070B266E080E266025
:10FD8000C4EF7EF0C6EF7EF0B1EF7EF023C0D9FF66
:10FD900024C0DAFFDF50070B266E030E2664D3EF74
:10FDA0007EF0D5EF7EF036EF7FF0B1EF7EF023C02E
:10FDB000D9FF24C0DAFFDF30E832E832070B266EC5
:10FDC000010E276E262AE7EF7EF0D8902736262EE2
:10FDD000E5EF7EF02750FF0A286E23C0D9FF24C02C
:10FDE000DAFFDF50070B296E2950020D010EF324B4
:10FDF000D96E000EF420DA6EDECF2AF0DDCF2BF0C4
:10FE00002AC0D9FF2BC0DAFF2850DF164BEF7FF056
:10FE100023C0D9FF24C0DAFFDF30E832E832070B15
:10FE2000266E010E276E262A18EF7FF0D89027360F
:10FE3000262E16EF7FF023C0D9FF24C0DAFFDF5053
:10FE4000070B286E2850020D010EF324D96E000E08
:10FE5000F420DA6EDECF29F0DDCF2AF029C0D9FFF9
:10FE60002AC0DAFF2750DF124BEF7FF02550266EB5
:10FE7000276A2750000AD8B440EF7FF0B1EF7EF038
:10FE80002650000AD8B4D7EF7EF0010AD8B408EFA4
:10FE90007FF0B1EF7EF02C501200010E2B6E23503C
:10FEA0002410D8A456EF7FF058EF7FF05CEF7FF07E
:10FEB000000E2B6EFEEF7FF023C0D9FF24C0DAFFC7
:10FEC000DF30E832E832070B256E080E25606BEF55
:10FED0007FF06DEF7FF058EF7FF023C0D9FF24C093
:10FEE000DAFFDF50070B256E030E25647AEF7FF0F3
:10FEF0007CEF7FF0DDEF7FF058EF7FF023C0D9FF7C
:10FF000024C0DAFFDF30E832E832070B256E010E3D
:10FF1000266E252A8EEF7FF0D8902636252E8CEF80
:10FF20007FF02650FF0A276E23C0D9FF24C0DAFFD6
:10FF3000DF50070B286E2850020D150EF324D96EE2
:10FF4000000EF420DA6EDECF29F0DDCF2AF029C0D2
:10FF5000D9FF2AC0DAFF2750DF16FEEF7FF023C05B
:10FF6000D9FF24C0DAFFDF30E832E832070B256E14
:10FF7000010E266E252ABFEF7FF0D8902636252E5B
:10FF8000BDEF7FF023C0D9FF24C0DAFFDF50070B9D
:10FF9000276E2750020D150EF324D96E000EF420A3
:10FFA000DA6EDECF28F0DDCF29F028C0D9FF29C0D6
:10FFB000DAFF2650DF12FEEF7FF023C0D9FF24C006
:10FFC000DAFFDFBCE6EF7FF0E9EF7FF0010EEAEF4A
:10FFD0007FF0000E256E266A2650000AD8B4F3EF93
:10FFE0007FF058EF7FF02550000AD8B47EEF7FF005
:10FFF000010AD8B4AFEF7FF058EF7FF02B5012001A
:020000040020DA
:08000000FFFFFFFFFFFFFFFF00
:020000040030CA
:0E000000FF02091EFF8181FF0FC00FE00F40BD
:00000001FF
