:040000001FEF00F0FE
:060008004982D8ED0CF066
:100018004980E8CF27F0E0CF28F0F0A816EF00F0ED
:1000280018EF00F019EF00F0F05028C0E0FF27C0EB
:0A003800E8FF4990100053EF0CF0B0
:10100000003738392F3435362A3132332D23303DED
:101010002B00010E316E29502A10D8A412EF08F0CF
:1010200014EF08F018EF08F0000E316EBAEF08F078
:1010300029C0D9FF2AC0DAFFDF30E832E832070BD7
:101040002B6E080E2B6027EF08F029EF08F014EF45
:1010500008F029C0D9FF2AC0DAFFDF50070B2B6E3A
:10106000030E2B6436EF08F038EF08F099EF08F024
:1010700014EF08F029C0D9FF2AC0DAFFDF30E832C8
:10108000E832070B2B6E010E2C6E2B2A4AEF08F06C
:10109000D8902C362B2E48EF08F02C50FF0A2D6EDE
:1010A00029C0D9FF2AC0DAFFDF50070B2E6E2E5061
:1010B000020D150EF324D96E000EF420DA6EDECF89
:1010C0002FF0DDCF30F02FC0D9FF30C0DAFF2D5028
:1010D000DF16BAEF08F029C0D9FF2AC0DAFFDF30E7
:1010E000E832E832070B2B6E010E2C6E2B2A7BEFB9
:1010F00008F0D8902C362B2E79EF08F029C0D9FFB4
:101100002AC0DAFFDF50070B2D6E2D50020D150E91
:10111000F324D96E000EF420DA6EDECF2EF0DDCF90
:101120002FF02EC0D9FF2FC0DAFF2C50DF12BAEFFC
:1011300008F029C0D9FF2AC0DAFFDFBCA2EF08F00F
:10114000A5EF08F0010EA6EF08F0000E2B6E2C6A3A
:101150002C50000AD8B4AFEF08F014EF08F02B5071
:10116000000AD8B43AEF08F0010AD8B46BEF08F0DF
:1011700014EF08F03150120029502A10D8A4C3EF00
:1011800008F0C5EF08F02CEF09F04BEF09F0F18CF7
:10119000F0EF08F0F19CF0EF08F0F0EF08F029C054
:1011A000D9FF2AC0DAFFDF502B6E2C6A2C50000AC0
:1011B000D8B4DDEF08F0CDEF08F02B50000AD8B41A
:1011C000CAEF08F0010AD8B4C7EF08F0CDEF08F075
:1011D000F18A11EF09F0F19A11EF09F011EF09F01E
:1011E00029C0D9FF2AC0DAFFDF502B6E2C6A2C50A1
:1011F000000AD8B4FEEF08F0EEEF08F02B50000A1A
:10120000D8B4EBEF08F0010AD8B4E8EF08F0EEEF3D
:1012100008F0F188C5EF08F0F198C5EF08F0C5EFC8
:1012200008F020EE02F02950D9262A50DA22DF50A9
:101230002B6E2C6A2C50000AD8B421EF09F00FEF66
:1012400009F02B50000AD8B40CEF09F0010AD8B409
:1012500009EF09F00FEF09F020EE01F02950D9262F
:101260002A50DA22DF502B6E2C6A2C50000AD8B498
:101270003CEF09F0C5EF08F02B50000AD8B4CFEFCF
:1012800008F0010AD8B4F0EF08F0030AD8B411EF5F
:1012900009F0C5EF08F0000E120029502A10D8A45A
:1012A00054EF09F056EF09F09EEF09F0B9EF09F09D
:1012B000F08C83EF09F0F09C83EF09F083EF09F0E5
:1012C00020EE02F02950D9262A50DA22DF502B6E68
:1012D0002C6A2C50000AD8B470EF09F05EEF09F0C8
:1012E0002B50000AD8B45BEF09F0010AD8B458EFCC
:1012F00009F05EEF09F0F08E56EF09F0F09E56EF20
:1013000009F056EF09F020EE02F02950D9262A50B4
:10131000DA22DF502B6E2C6A2C50000AD8B493EFDF
:1013200009F081EF09F02B50000AD8B47EEF09F0E4
:10133000010AD8B47BEF09F081EF09F020EE01F04B
:101340002950D9262A50DA22DF502B6E2C6A2C50D5
:10135000000AD8B4AEEF09F056EF09F02B50010A9D
:10136000D8B460EF09F0030AD8B483EF09F056EF60
:1013700009F0000E120031503210D8A4C2EF09F06B
:10138000C4EF09F0C8EF09F0000E346E1AEF0AF04E
:1013900031C0D9FF32C0DAFFDF30E832E832070B64
:1013A000336E080E3360D7EF09F0D9EF09F0C4EFC0
:1013B00009F031C0D9FF32C0DAFFDF50070B336EBE
:1013C000030E3364E6EF09F0E8EF09F0EAEF09F005
:1013D000C4EF09F043C035F031C0D9FF32C0DAFFA5
:1013E000DF50070B336E35503318F80B3318356E5A
:1013F00031C0D9FF32C0DAFFDF30E832E832070B04
:10140000336E33463346334635503318C70B3318E3
:10141000356E359C31C0D9FF32C0DAFFDFAC02D067
:10142000358E01D0359E350E296E000E2A6E7DEC6C
:101430000AF0346E3450120032503310D8A423EF27
:101440000AF025EF0AF029EF0AF0000E356E7BEF67
:101450000AF032C0D9FF33C0DAFFDF30E832E832B9
:10146000070B346E080E346038EF0AF03AEF0AF0DA
:1014700025EF0AF032C0D9FF33C0DAFFDF50070B87
:10148000346E030E346447EF0AF049EF0AF04BEF75
:101490000AF025EF0AF046C036F032C0D9FF33C05B
:1014A000DAFFDF50070B346E36503418F80B34185F
:1014B000366E32C0D9FF33C0DAFFDF30E832E832AF
:1014C000070B346E34463446344636503418C70B56
:1014D0003418366E369C32C0D9FF33C0DAFFDFAC29
:1014E00002D0368E01D0369E360E296E000E2A6E40
:1014F00009EC08F0356E35501200010E306E29509F
:101500002A10D8A486EF0AF088EF0AF08CEF0AF0D0
:10151000000E306EDAEF0AF029C0D9FF2AC0DAFFD8
:10152000DF30E832E832070B2B6E080E2B609BEFA2
:101530000AF09DEF0AF088EF0AF029C0D9FF2AC00F
:10154000DAFFDF50070B2B6E030E2B64AAEF0AF0B5
:10155000ACEF0AF0AEEF0AF088EF0AF029C0D9FF2D
:101560002AC0DAFFDF30E832E832070B2B6E010EBB
:101570002C6E2B2ABEEF0AF0D8902C362B2EBCEF07
:101580000AF029C0D9FF2AC0DAFFDF50070B2D6E01
:101590002D50020D010EF324D96E000EF420DA6EE8
:1015A000DECF2EF0DDCF2FF02EC0D9FF2FC0DAFF17
:1015B0002C50DF1A305012002C502D10D8A4E3EF1D
:1015C0000AF0E5EF0AF00AEF0BF0000E306E29EF9B
:1015D0000BF0040E2C24296E000E2D202A6EB0EC88
:1015E0000CF0306E29EF0BF0040E2C24296E000E47
:1015F0002D202A6E9BEC0CF0306E29EF0BF0040EC0
:101600002C24296E000E2D202A6E86EC0CF0306EF4
:1016100029EF0BF020EE01F02C50D9262D50DA22C4
:10162000DF502E6E2F6A2F50000AD8B41AEF0BF03D
:10163000E5EF0AF02E50000AD8B4E9EF0AF0010AEB
:10164000D8B4F4EF0AF0030AD8B4FFEF0AF0E5EFDC
:101650000AF030501200010E2D6E29502A10D8A425
:1016600034EF0BF036EF0BF04CEF0BF0000E2D6E5D
:101670006BEF0BF0D08EF28EF28CF2886BEF0BF0EA
:10168000D08EF28EF28CF0866BEF0BF0D08EF28E55
:10169000F28CF0886BEF0BF020EE01F02950D92688
:1016A0002A50DA22DF502B6E2C6A2C50000AD8B454
:1016B0005CEF0BF036EF0BF02B50000AD8B43AEF8A
:1016C0000BF0010AD8B440EF0BF0030AD8B446EF90
:1016D0000BF036EF0BF02D50120035503610D8A419
:1016E00074EF0BF076EF0BF07AEF0BF0000E376E25
:1016F000A7EF0BF035C029F036C02AF0A9EC0BF0AB
:10170000376E35C029F036C02AF0E2EC0BF0376EA8
:1017100035C032F036C033F06EEC0CF035C029F035
:1017200036C02AF04DEC09F035C029F036C02AF059
:10173000BCEC08F035C02CF036C02DF0DCEC0AF023
:1017400035C029F036C02AF02BEC0BF0376E37503D
:101750001200010E2D6E29502A10D8A4B2EF0BF002
:10176000B4EF0BF0C1EF0BF0000E2D6EE0EF0BF0BD
:10177000F298E0EF0BF0F096E0EF0BF0F098E0EF6E
:101780000BF020EE01F02950D9262A50DA22DF5042
:101790002B6E2C6A2C50000AD8B4D1EF0BF0B4EFAA
:1017A0000BF02B50000AD8B4B8EF0BF0010AD8B4F4
:1017B000BBEF0BF0030AD8B4BEEF0BF0B4EF0BF0A5
:1017C0002D501200010E2D6E29502A10D8A4EBEFD7
:1017D0000BF0EDEF0BF0FAEF0BF0000E2D6E19EFA2
:1017E0000CF0F29219EF0CF0F09019EF0CF0F0926F
:1017F00019EF0CF020EE01F02950D9262A50DA22F8
:10180000DF502B6E2C6A2C50000AD8B40AEF0CF073
:10181000EDEF0BF02B50000AD8B4F1EF0BF0010AFA
:10182000D8B4F4EF0BF0030AD8B4F7EF0BF0EDEFF8
:101830000BF02D501200260E326E000E336E1CEC93
:101840000AF0250E326E000E336E1CEC0AF01F0EED
:10185000356E000E366E6DEC0BF0260E316E000EFE
:10186000326EBBEC09F0030E396E8A0E386E560EDE
:10187000E82EFED7382EFCD7392EFAD7260E316E39
:10188000000E326EBBEC09F0030E396E8A0E386E14
:10189000560EE82EFED7382EFCD7392EFAD72DEF6C
:1018A0000CF01FEF00F08A0EF66E190EF76E000EA8
:1018B000F86E00EE01F010EE26F00900F5CFEEFF15
:1018C000E550E150FAE100EE3AF00F0EEE6AE8065C
:1018D000FDE14990499200011BEF0CF032503310AA
:1018E000D8A475EF0CF077EF0CF07BEF0CF0000E46
:1018F000346E84EF0CF0030E3224296E000E332078
:101900002A6E09EC08F0346E34501200010E2B6E72
:1019100029502A10D8A48FEF0CF091EF0CF095EF1E
:101920000CF0000E2B6E99EF0CF029C03AF02AC093
:101930003BF02B501200010E2B6E29502A10D8A418
:10194000A4EF0CF0A6EF0CF0AAEF0CF0000E2B6E3B
:10195000AEEF0CF029C03CF02AC03DF02B50120035
:10196000010E2B6E29502A10D8A4B9EF0CF0BBEF52
:101970000CF0BFEF0CF0000E2B6EC3EF0CF029C083
:101980003EF02AC03FF02B501200890F8A0F8B0FB8
:101990008C0F8D0F800F810F820F830F840F920F9A
:1019A000930F940F950F960F0100014100000A025A
:1019B0000600F2A8DEEF0CF0E0EF0CF0E1EF0CF027
:1019C000F250F0A6E6EF0CF0E8EF0CF0E9EF0CF0C7
:0619D000F05049921100E5
:020000040020DA
:08000000FFFFFFFFFFFFFFFF00
:020000040030CA
:0E000000FF02091EFF8181FF0FC00FE00F40BD
:00000001FF
